{
  "contractName": "LotteryPool",
  "abi": [
    {
      "inputs": [
        {
          "internalType": "address",
          "name": "trees",
          "type": "address"
        },
        {
          "internalType": "address",
          "name": "stablecoin",
          "type": "address"
        }
      ],
      "stateMutability": "nonpayable",
      "type": "constructor"
    },
    {
      "inputs": [],
      "name": "pseudoRNG",
      "outputs": [
        {
          "internalType": "uint256",
          "name": "",
          "type": "uint256"
        }
      ],
      "stateMutability": "nonpayable",
      "type": "function"
    },
    {
      "inputs": [],
      "name": "getDayOfWeek",
      "outputs": [
        {
          "internalType": "uint8",
          "name": "",
          "type": "uint8"
        }
      ],
      "stateMutability": "view",
      "type": "function"
    },
    {
      "inputs": [],
      "name": "winner",
      "outputs": [
        {
          "internalType": "address",
          "name": "",
          "type": "address"
        }
      ],
      "stateMutability": "view",
      "type": "function"
    },
    {
      "inputs": [
        {
          "internalType": "uint256",
          "name": "treeTokenId",
          "type": "uint256"
        }
      ],
      "name": "enlistToLottery",
      "outputs": [],
      "stateMutability": "nonpayable",
      "type": "function"
    },
    {
      "inputs": [],
      "name": "triggerLotterie",
      "outputs": [],
      "stateMutability": "nonpayable",
      "type": "function"
    },
    {
      "inputs": [],
      "name": "claimLottery",
      "outputs": [],
      "stateMutability": "nonpayable",
      "type": "function"
    }
  ],
  "bytecode": "0x60806040523480156200001157600080fd5b50604051620010583803806200105883398181016040528101906200003791906200012a565b816000806101000a81548173ffffffffffffffffffffffffffffffffffffffff021916908373ffffffffffffffffffffffffffffffffffffffff16021790555080600160006101000a81548173ffffffffffffffffffffffffffffffffffffffff021916908373ffffffffffffffffffffffffffffffffffffffff160217905550505062000171565b600080fd5b600073ffffffffffffffffffffffffffffffffffffffff82169050919050565b6000620000f282620000c5565b9050919050565b6200010481620000e5565b81146200011057600080fd5b50565b6000815190506200012481620000f9565b92915050565b60008060408385031215620001445762000143620000c0565b5b6000620001548582860162000113565b9250506020620001678582860162000113565b9150509250929050565b610ed780620001816000396000f3fe608060405234801561001057600080fd5b50600436106100625760003560e01c80635529d8641461006757806375b7b1aa14610085578063a6072328146100a3578063b49951d6146100ad578063d16c35ff146100c9578063dfbf53ae146100d3575b600080fd5b61006f6100f1565b60405161007c9190610871565b60405180910390f35b61008d61011f565b60405161009a91906108a5565b60405180910390f35b6100ab61017b565b005b6100c760048036038101906100c291906108f1565b61036e565b005b6100d161057a565b005b6100db61082b565b6040516100e8919061095f565b60405180910390f35b600060076004620151804261010691906109d8565b6101109190610a09565b61011a9190610a3d565b905090565b60006009600081548092919061013490610a6e565b91905055506009543360014361014a9190610ab6565b4060405160200161015d93929190610b7e565b6040516020818303038152906040528051906020012060001c905090565b42600560030154106101c2576040517f08c379a00000000000000000000000000000000000000000000000000000000081526004016101b990610bf2565b60405180910390fd5b600560000160009054906101000a900473ffffffffffffffffffffffffffffffffffffffff1673ffffffffffffffffffffffffffffffffffffffff163373ffffffffffffffffffffffffffffffffffffffff1614610255576040517f08c379a000000000000000000000000000000000000000000000000000000000815260040161024c90610bf2565b60405180910390fd5b600560020160009054906101000a900460ff16156102a8576040517f08c379a000000000000000000000000000000000000000000000000000000000815260040161029f90610bf2565b60405180910390fd5b6001600560020160006101000a81548160ff021916908315150217905550600160009054906101000a900473ffffffffffffffffffffffffffffffffffffffff1673ffffffffffffffffffffffffffffffffffffffff1663a9059cbb336005600101546040518363ffffffff1660e01b8152600401610328929190610c12565b6020604051808303816000875af1158015610347573d6000803e3d6000fd5b505050506040513d601f19601f8201168201806040525081019061036b9190610c73565b50565b3373ffffffffffffffffffffffffffffffffffffffff1660008054906101000a900473ffffffffffffffffffffffffffffffffffffffff1673ffffffffffffffffffffffffffffffffffffffff16636352211e836040518263ffffffff1660e01b81526004016103de91906108a5565b602060405180830381865afa1580156103fb573d6000803e3d6000fd5b505050506040513d601f19601f8201168201806040525081019061041f9190610ccc565b73ffffffffffffffffffffffffffffffffffffffff1614610475576040517f08c379a000000000000000000000000000000000000000000000000000000000815260040161046c90610bf2565b60405180910390fd5b60008060009054906101000a900473ffffffffffffffffffffffffffffffffffffffff1673ffffffffffffffffffffffffffffffffffffffff1663cd708a64836040518263ffffffff1660e01b81526004016104d191906108a5565b602060405180830381865afa1580156104ee573d6000803e3d6000fd5b505050506040513d601f19601f820116820180604052508101906105129190610d0e565b9050600060035490505b8160035461052a9190610a09565b81101561055c57826002600083815260200190815260200160002081905550808061055490610a6e565b91505061051c565b50806003600082825461056f9190610a09565b925050819055505050565b42600560030154106105c1576040517f08c379a00000000000000000000000000000000000000000000000000000000081526004016105b890610dad565b60405180910390fd5b60076105cb6100f1565b60ff161461060e576040517f08c379a000000000000000000000000000000000000000000000000000000000815260040161060590610e3f565b60405180910390fd5b600061061861011f565b905060006003548261062a9190610a3d565b905060008054906101000a900473ffffffffffffffffffffffffffffffffffffffff1673ffffffffffffffffffffffffffffffffffffffff16636352211e60026000848152602001908152602001600020546040518263ffffffff1660e01b815260040161069891906108a5565b602060405180830381865afa1580156106b5573d6000803e3d6000fd5b505050506040513d601f19601f820116820180604052508101906106d99190610ccc565b600560000160006101000a81548173ffffffffffffffffffffffffffffffffffffffff021916908373ffffffffffffffffffffffffffffffffffffffff160217905550600160009054906101000a900473ffffffffffffffffffffffffffffffffffffffff1673ffffffffffffffffffffffffffffffffffffffff166370a0823160006040518263ffffffff1660e01b8152600401610778919061095f565b602060405180830381865afa158015610795573d6000803e3d6000fd5b505050506040513d601f19601f820116820180604052508101906107b99190610d0e565b6064600a846107c89190610a3d565b60056107d49190610a09565b6107de91906109d8565b6107e89190610e5f565b6005600101819055506000600560020160006101000a81548160ff0219169083151502179055506202a3004261081e9190610a09565b6005600301819055505050565b6000600460009054906101000a900473ffffffffffffffffffffffffffffffffffffffff16905090565b600060ff82169050919050565b61086b81610855565b82525050565b60006020820190506108866000830184610862565b92915050565b6000819050919050565b61089f8161088c565b82525050565b60006020820190506108ba6000830184610896565b92915050565b600080fd5b6108ce8161088c565b81146108d957600080fd5b50565b6000813590506108eb816108c5565b92915050565b600060208284031215610907576109066108c0565b5b6000610915848285016108dc565b91505092915050565b600073ffffffffffffffffffffffffffffffffffffffff82169050919050565b60006109498261091e565b9050919050565b6109598161093e565b82525050565b60006020820190506109746000830184610950565b92915050565b7f4e487b7100000000000000000000000000000000000000000000000000000000600052601260045260246000fd5b7f4e487b7100000000000000000000000000000000000000000000000000000000600052601160045260246000fd5b60006109e38261088c565b91506109ee8361088c565b9250826109fe576109fd61097a565b5b828204905092915050565b6000610a148261088c565b9150610a1f8361088c565b9250828201905080821115610a3757610a366109a9565b5b92915050565b6000610a488261088c565b9150610a538361088c565b925082610a6357610a6261097a565b5b828206905092915050565b6000610a798261088c565b91507fffffffffffffffffffffffffffffffffffffffffffffffffffffffffffffffff8203610aab57610aaa6109a9565b5b600182019050919050565b6000610ac18261088c565b9150610acc8361088c565b9250828203905081811115610ae457610ae36109a9565b5b92915050565b6000819050919050565b610b05610b008261088c565b610aea565b82525050565b60008160601b9050919050565b6000610b2382610b0b565b9050919050565b6000610b3582610b18565b9050919050565b610b4d610b488261093e565b610b2a565b82525050565b6000819050919050565b6000819050919050565b610b78610b7382610b53565b610b5d565b82525050565b6000610b8a8286610af4565b602082019150610b9a8285610b3c565b601482019150610baa8284610b67565b602082019150819050949350505050565b600082825260208201905092915050565b50565b6000610bdc600083610bbb565b9150610be782610bcc565b600082019050919050565b60006020820190508181036000830152610c0b81610bcf565b9050919050565b6000604082019050610c276000830185610950565b610c346020830184610896565b9392505050565b60008115159050919050565b610c5081610c3b565b8114610c5b57600080fd5b50565b600081519050610c6d81610c47565b92915050565b600060208284031215610c8957610c886108c0565b5b6000610c9784828501610c5e565b91505092915050565b610ca98161093e565b8114610cb457600080fd5b50565b600081519050610cc681610ca0565b92915050565b600060208284031215610ce257610ce16108c0565b5b6000610cf084828501610cb7565b91505092915050565b600081519050610d08816108c5565b92915050565b600060208284031215610d2457610d236108c0565b5b6000610d3284828501610cf9565b91505092915050565b7f4c617374204c6f7474657279207374696c6c206e65656420746f20626520726560008201527f6465656d65640000000000000000000000000000000000000000000000000000602082015250565b6000610d97602683610bbb565b9150610da282610d3b565b604082019050919050565b60006020820190508181036000830152610dc681610d8a565b9050919050565b7f4c6f74746572792063616e206f6e6c7920626520747269676765726564206f6e60008201527f2053756e64617920555443000000000000000000000000000000000000000000602082015250565b6000610e29602b83610bbb565b9150610e3482610dcd565b604082019050919050565b60006020820190508181036000830152610e5881610e1c565b9050919050565b6000610e6a8261088c565b9150610e758361088c565b9250828202610e838161088c565b91508282048414831517610e9a57610e996109a9565b5b509291505056fea2646970667358221220efa8f238228fb67db52a2824a8936c77c08420e30bac97d24eee6c6d681ead0764736f6c63430008110033",
  "immutableReferences": {},
  "source": "pragma solidity ^0.8.0;\n\nimport \"./Tree.sol\";\nimport \"@openzeppelin/contracts/token/ERC20/IERC20.sol\";\n\ncontract LotteryPool {\n    Trees _trees;\n    IERC20 _stablecoin;\n\n    struct ClaimLottery{\n        address winner;\n        uint256 value;\n        bool reedemed;\n        uint256 deadline;\n    }\n\n    mapping(uint256 => uint256) _lotteryTickets;\n    uint256 _lotteryTicketCount;\n\n    address _curentWeekLotteryWinner;\n    bool _winnerClaimedLotteryGains;\n\n    ClaimLottery winnerInfos;\n\n    uint256 nonce;\n\n    constructor (address trees, address stablecoin){\n        _trees = Trees(trees);\n        _stablecoin = IERC20(stablecoin);\n    }\n\n    function pseudoRNG() public returns(uint256) {\n        nonce++;\n        return uint256(keccak256(abi.encodePacked(nonce, msg.sender, blockhash(block.number - 1))));\n    }\n\n    function getDayOfWeek() public view returns (uint8) {\n        return uint8((block.timestamp / 86400 + 4) % 7);  \n    }\n\n    function winner() public view returns(address){\n        return _curentWeekLotteryWinner;\n    }\n\n    function enlistToLottery(uint256 treeTokenId) public{\n        require(_trees.ownerOf(treeTokenId) == msg.sender, \"\"); //write message\n        uint256 ticketCount = _trees.treeToLotteryTickets(treeTokenId);\n        for(uint256 i = _lotteryTicketCount; i < _lotteryTicketCount + ticketCount; i++){\n            _lotteryTickets[i] = treeTokenId;\n        }\n        _lotteryTicketCount += ticketCount;\n    }\n\n    function triggerLotterie() public {\n        require(winnerInfos.deadline < block.timestamp, \"Last Lottery still need to be redeemed\");\n        require(getDayOfWeek() == 7, \"Lottery can only be triggered on Sunday UTC\");\n        uint256 rng = pseudoRNG();\n        uint256 lotteryWinner = rng % _lotteryTicketCount;\n\n        winnerInfos.winner = _trees.ownerOf(_lotteryTickets[lotteryWinner]);\n        winnerInfos.value = (5 + rng % 10) / 100 * _stablecoin.balanceOf(address(0));\n        winnerInfos.reedemed = false;\n        winnerInfos.deadline = block.timestamp + 2 days;\n    }\n\n    function claimLottery() public{\n        require(winnerInfos.deadline < block.timestamp,\"\");\n        require(msg.sender == winnerInfos.winner,\"\");\n        require(!winnerInfos.reedemed,\"\");\n\n        winnerInfos.reedemed = true;\n        _stablecoin.transfer(msg.sender, winnerInfos.value);\n    }\n} ",
  "sourcePath": "/home/prawin/Documents/EthPrague/contracts/LotteryPool.sol",
  "compiler": {
    "name": "solc",
    "version": "0.8.17+commit.8df45f5f.Emscripten.clang"
  },
  "schemaVersion": "3.4.11",
  "updatedAt": "2023-06-10T10:37:55.547Z",
  "devdoc": {
    "kind": "dev",
    "methods": {},
    "version": 1
  },
  "userdoc": {
    "kind": "user",
    "methods": {},
    "version": 1
  }
}