{
  "contractName": "MyForest",
  "abi": [
    {
      "inputs": [
        {
          "internalType": "address",
          "name": "trees",
          "type": "address"
        },
        {
          "internalType": "address",
          "name": "waterbuckets",
          "type": "address"
        },
        {
          "internalType": "address",
          "name": "stabletoken",
          "type": "address"
        }
      ],
      "stateMutability": "nonpayable",
      "type": "constructor"
    },
    {
      "inputs": [],
      "name": "pseudoRNG",
      "outputs": [
        {
          "internalType": "uint256",
          "name": "",
          "type": "uint256"
        }
      ],
      "stateMutability": "nonpayable",
      "type": "function"
    },
    {
      "inputs": [
        {
          "internalType": "uint256",
          "name": "treeId",
          "type": "uint256"
        },
        {
          "internalType": "uint256",
          "name": "buckets",
          "type": "uint256"
        }
      ],
      "name": "waterTree",
      "outputs": [],
      "stateMutability": "nonpayable",
      "type": "function"
    },
    {
      "inputs": [
        {
          "internalType": "uint256",
          "name": "wantedBuckets",
          "type": "uint256"
        }
      ],
      "name": "fetchWaterBucket",
      "outputs": [],
      "stateMutability": "nonpayable",
      "type": "function"
    },
    {
      "inputs": [],
      "name": "getTree",
      "outputs": [],
      "stateMutability": "nonpayable",
      "type": "function"
    }
  ],
  "bytecode": "0x60806040526001600455600160055534801561001a57600080fd5b50604051610afc380380610afc833981810160405281019061003c9190610171565b826000806101000a81548173ffffffffffffffffffffffffffffffffffffffff021916908373ffffffffffffffffffffffffffffffffffffffff16021790555081600160006101000a81548173ffffffffffffffffffffffffffffffffffffffff021916908373ffffffffffffffffffffffffffffffffffffffff16021790555080600260006101000a81548173ffffffffffffffffffffffffffffffffffffffff021916908373ffffffffffffffffffffffffffffffffffffffff16021790555060006003819055505050506101c4565b600080fd5b600073ffffffffffffffffffffffffffffffffffffffff82169050919050565b600061013e82610113565b9050919050565b61014e81610133565b811461015957600080fd5b50565b60008151905061016b81610145565b92915050565b60008060006060848603121561018a5761018961010e565b5b60006101988682870161015c565b93505060206101a98682870161015c565b92505060406101ba8682870161015c565b9150509250925092565b610929806101d36000396000f3fe608060405234801561001057600080fd5b506004361061004c5760003560e01c80631911d1761461005157806375b7b1aa1461005b578063f5c7eb9114610079578063fdb19ea114610095575b600080fd5b6100596100b1565b005b6100636101fe565b60405161007091906104ed565b60405180910390f35b610093600480360381019061008e9190610539565b61025a565b005b6100af60048036038101906100aa9190610579565b61037a565b005b600060036100bd6101fe565b6100c791906105d5565b905060008054906101000a900473ffffffffffffffffffffffffffffffffffffffff1673ffffffffffffffffffffffffffffffffffffffff1663e1bfd93833836040518363ffffffff1660e01b8152600401610124929190610647565b600060405180830381600087803b15801561013e57600080fd5b505af1158015610152573d6000803e3d6000fd5b50505050600260009054906101000a900473ffffffffffffffffffffffffffffffffffffffff1673ffffffffffffffffffffffffffffffffffffffff166323b872dd33306005546040518463ffffffff1660e01b81526004016101b793929190610670565b6020604051808303816000875af11580156101d6573d6000803e3d6000fd5b505050506040513d601f19601f820116820180604052508101906101fa91906106df565b5050565b6000600360008154809291906102139061073b565b9190505550600354336001436102299190610783565b4060405160200161023c9392919061084b565b6040516020818303038152906040528051906020012060001c905090565b600160009054906101000a900473ffffffffffffffffffffffffffffffffffffffff1673ffffffffffffffffffffffffffffffffffffffff166369fb2a2033836040518363ffffffff1660e01b81526004016102b7929190610647565b600060405180830381600087803b1580156102d157600080fd5b505af11580156102e5573d6000803e3d6000fd5b5050505060008054906101000a900473ffffffffffffffffffffffffffffffffffffffff1673ffffffffffffffffffffffffffffffffffffffff1663f5c7eb9183836040518363ffffffff1660e01b8152600401610344929190610888565b600060405180830381600087803b15801561035e57600080fd5b505af1158015610372573d6000803e3d6000fd5b505050505050565b6000816103856101fe565b61038f91906105d5565b9050600160009054906101000a900473ffffffffffffffffffffffffffffffffffffffff1673ffffffffffffffffffffffffffffffffffffffff166340c10f1933836040518363ffffffff1660e01b81526004016103ee929190610647565b600060405180830381600087803b15801561040857600080fd5b505af115801561041c573d6000803e3d6000fd5b50505050600260009054906101000a900473ffffffffffffffffffffffffffffffffffffffff1673ffffffffffffffffffffffffffffffffffffffff166323b872dd33308560045461046e91906108b1565b6040518463ffffffff1660e01b815260040161048c93929190610670565b6020604051808303816000875af11580156104ab573d6000803e3d6000fd5b505050506040513d601f19601f820116820180604052508101906104cf91906106df565b505050565b6000819050919050565b6104e7816104d4565b82525050565b600060208201905061050260008301846104de565b92915050565b600080fd5b610516816104d4565b811461052157600080fd5b50565b6000813590506105338161050d565b92915050565b600080604083850312156105505761054f610508565b5b600061055e85828601610524565b925050602061056f85828601610524565b9150509250929050565b60006020828403121561058f5761058e610508565b5b600061059d84828501610524565b91505092915050565b7f4e487b7100000000000000000000000000000000000000000000000000000000600052601260045260246000fd5b60006105e0826104d4565b91506105eb836104d4565b9250826105fb576105fa6105a6565b5b828206905092915050565b600073ffffffffffffffffffffffffffffffffffffffff82169050919050565b600061063182610606565b9050919050565b61064181610626565b82525050565b600060408201905061065c6000830185610638565b61066960208301846104de565b9392505050565b60006060820190506106856000830186610638565b6106926020830185610638565b61069f60408301846104de565b949350505050565b60008115159050919050565b6106bc816106a7565b81146106c757600080fd5b50565b6000815190506106d9816106b3565b92915050565b6000602082840312156106f5576106f4610508565b5b6000610703848285016106ca565b91505092915050565b7f4e487b7100000000000000000000000000000000000000000000000000000000600052601160045260246000fd5b6000610746826104d4565b91507fffffffffffffffffffffffffffffffffffffffffffffffffffffffffffffffff82036107785761077761070c565b5b600182019050919050565b600061078e826104d4565b9150610799836104d4565b92508282039050818111156107b1576107b061070c565b5b92915050565b6000819050919050565b6107d26107cd826104d4565b6107b7565b82525050565b60008160601b9050919050565b60006107f0826107d8565b9050919050565b6000610802826107e5565b9050919050565b61081a61081582610626565b6107f7565b82525050565b6000819050919050565b6000819050919050565b61084561084082610820565b61082a565b82525050565b600061085782866107c1565b6020820191506108678285610809565b6014820191506108778284610834565b602082019150819050949350505050565b600060408201905061089d60008301856104de565b6108aa60208301846104de565b9392505050565b60006108bc826104d4565b91506108c7836104d4565b92508282026108d5816104d4565b915082820484148315176108ec576108eb61070c565b5b509291505056fea26469706673582212205000df9e204b371351a944a727a38a5280799bc55c54c5130f6bfbb0d6053c0964736f6c63430008110033",
  "immutableReferences": {},
  "source": "pragma solidity ^0.8.0;\n\nimport \"./Tree.sol\";\nimport \"./WaterBucket.sol\";\nimport \"@openzeppelin/contracts/token/ERC20/IERC20.sol\";\n\ncontract MyForest{\n    Trees _trees;\n    WaterBucket _waterbuckets;\n\n    IERC20 _stablecoin;\n\n    uint256 nonce;\n\n    uint256 priceBucket = 1;\n    uint256 priceTree = 1;\n\n    address pool;\n\n    constructor (address trees, address waterbuckets, address stabletoken){\n        _trees = Trees(trees);\n        _waterbuckets = WaterBucket(waterbuckets);\n        _stablecoin = IERC20(stabletoken);\n        nonce = 0;\n    }\n\n    function pseudoRNG() public returns(uint256) {\n        nonce++;\n        return uint256(keccak256(abi.encodePacked(nonce, msg.sender, blockhash(block.number - 1))));\n    }\n\n    function waterTree(uint256 treeId, uint256 buckets) public {\n        _waterbuckets.use(msg.sender, buckets);\n        _trees.waterTree(treeId, buckets);\n    }\n\n    function fetchWaterBucket(uint256 wantedBuckets) public {\n        uint256 actualBuckets = pseudoRNG() % wantedBuckets;\n        _waterbuckets.mint(msg.sender, actualBuckets);\n        _stablecoin.transferFrom(msg.sender, address(this), priceBucket * wantedBuckets);// replace with pool address\n    }\n\n    function getTree() public {\n        uint256 treeType = pseudoRNG() % 3;\n        _trees.mintTree(msg.sender, treeType);\n        _stablecoin.transferFrom(msg.sender, address(this), priceTree);\n    }\n\n    //connect contracts\n}",
  "sourcePath": "/home/prawin/Documents/EthPrague/contracts/MyForest.sol",
  "compiler": {
    "name": "solc",
    "version": "0.8.17+commit.8df45f5f.Emscripten.clang"
  },
  "schemaVersion": "3.4.11",
  "updatedAt": "2023-06-10T10:37:55.550Z",
  "devdoc": {
    "kind": "dev",
    "methods": {},
    "version": 1
  },
  "userdoc": {
    "kind": "user",
    "methods": {},
    "version": 1
  }
}