{
  "contractName": "Trees",
  "abi": [
    {
      "inputs": [
        {
          "internalType": "string",
          "name": "name",
          "type": "string"
        },
        {
          "internalType": "string",
          "name": "symbol",
          "type": "string"
        }
      ],
      "stateMutability": "nonpayable",
      "type": "constructor"
    },
    {
      "anonymous": false,
      "inputs": [
        {
          "indexed": true,
          "internalType": "address",
          "name": "owner",
          "type": "address"
        },
        {
          "indexed": true,
          "internalType": "address",
          "name": "approved",
          "type": "address"
        },
        {
          "indexed": true,
          "internalType": "uint256",
          "name": "tokenId",
          "type": "uint256"
        }
      ],
      "name": "Approval",
      "type": "event"
    },
    {
      "anonymous": false,
      "inputs": [
        {
          "indexed": true,
          "internalType": "address",
          "name": "owner",
          "type": "address"
        },
        {
          "indexed": true,
          "internalType": "address",
          "name": "operator",
          "type": "address"
        },
        {
          "indexed": false,
          "internalType": "bool",
          "name": "approved",
          "type": "bool"
        }
      ],
      "name": "ApprovalForAll",
      "type": "event"
    },
    {
      "anonymous": false,
      "inputs": [
        {
          "indexed": true,
          "internalType": "address",
          "name": "from",
          "type": "address"
        },
        {
          "indexed": true,
          "internalType": "address",
          "name": "to",
          "type": "address"
        },
        {
          "indexed": true,
          "internalType": "uint256",
          "name": "tokenId",
          "type": "uint256"
        }
      ],
      "name": "Transfer",
      "type": "event"
    },
    {
      "inputs": [
        {
          "internalType": "address",
          "name": "to",
          "type": "address"
        },
        {
          "internalType": "uint256",
          "name": "tokenId",
          "type": "uint256"
        }
      ],
      "name": "approve",
      "outputs": [],
      "stateMutability": "nonpayable",
      "type": "function"
    },
    {
      "inputs": [
        {
          "internalType": "address",
          "name": "owner",
          "type": "address"
        }
      ],
      "name": "balanceOf",
      "outputs": [
        {
          "internalType": "uint256",
          "name": "",
          "type": "uint256"
        }
      ],
      "stateMutability": "view",
      "type": "function"
    },
    {
      "inputs": [
        {
          "internalType": "uint256",
          "name": "tokenId",
          "type": "uint256"
        }
      ],
      "name": "getApproved",
      "outputs": [
        {
          "internalType": "address",
          "name": "",
          "type": "address"
        }
      ],
      "stateMutability": "view",
      "type": "function"
    },
    {
      "inputs": [
        {
          "internalType": "address",
          "name": "owner",
          "type": "address"
        },
        {
          "internalType": "address",
          "name": "operator",
          "type": "address"
        }
      ],
      "name": "isApprovedForAll",
      "outputs": [
        {
          "internalType": "bool",
          "name": "",
          "type": "bool"
        }
      ],
      "stateMutability": "view",
      "type": "function"
    },
    {
      "inputs": [],
      "name": "name",
      "outputs": [
        {
          "internalType": "string",
          "name": "",
          "type": "string"
        }
      ],
      "stateMutability": "view",
      "type": "function"
    },
    {
      "inputs": [
        {
          "internalType": "uint256",
          "name": "tokenId",
          "type": "uint256"
        }
      ],
      "name": "ownerOf",
      "outputs": [
        {
          "internalType": "address",
          "name": "",
          "type": "address"
        }
      ],
      "stateMutability": "view",
      "type": "function"
    },
    {
      "inputs": [
        {
          "internalType": "address",
          "name": "from",
          "type": "address"
        },
        {
          "internalType": "address",
          "name": "to",
          "type": "address"
        },
        {
          "internalType": "uint256",
          "name": "tokenId",
          "type": "uint256"
        }
      ],
      "name": "safeTransferFrom",
      "outputs": [],
      "stateMutability": "nonpayable",
      "type": "function"
    },
    {
      "inputs": [
        {
          "internalType": "address",
          "name": "from",
          "type": "address"
        },
        {
          "internalType": "address",
          "name": "to",
          "type": "address"
        },
        {
          "internalType": "uint256",
          "name": "tokenId",
          "type": "uint256"
        },
        {
          "internalType": "bytes",
          "name": "data",
          "type": "bytes"
        }
      ],
      "name": "safeTransferFrom",
      "outputs": [],
      "stateMutability": "nonpayable",
      "type": "function"
    },
    {
      "inputs": [
        {
          "internalType": "address",
          "name": "operator",
          "type": "address"
        },
        {
          "internalType": "bool",
          "name": "approved",
          "type": "bool"
        }
      ],
      "name": "setApprovalForAll",
      "outputs": [],
      "stateMutability": "nonpayable",
      "type": "function"
    },
    {
      "inputs": [
        {
          "internalType": "bytes4",
          "name": "interfaceId",
          "type": "bytes4"
        }
      ],
      "name": "supportsInterface",
      "outputs": [
        {
          "internalType": "bool",
          "name": "",
          "type": "bool"
        }
      ],
      "stateMutability": "view",
      "type": "function"
    },
    {
      "inputs": [],
      "name": "symbol",
      "outputs": [
        {
          "internalType": "string",
          "name": "",
          "type": "string"
        }
      ],
      "stateMutability": "view",
      "type": "function"
    },
    {
      "inputs": [
        {
          "internalType": "uint256",
          "name": "tokenId",
          "type": "uint256"
        }
      ],
      "name": "tokenURI",
      "outputs": [
        {
          "internalType": "string",
          "name": "",
          "type": "string"
        }
      ],
      "stateMutability": "view",
      "type": "function"
    },
    {
      "inputs": [
        {
          "internalType": "address",
          "name": "from",
          "type": "address"
        },
        {
          "internalType": "address",
          "name": "to",
          "type": "address"
        },
        {
          "internalType": "uint256",
          "name": "tokenId",
          "type": "uint256"
        }
      ],
      "name": "transferFrom",
      "outputs": [],
      "stateMutability": "nonpayable",
      "type": "function"
    },
    {
      "inputs": [
        {
          "internalType": "uint256",
          "name": "tokenId",
          "type": "uint256"
        }
      ],
      "name": "getTree",
      "outputs": [
        {
          "components": [
            {
              "internalType": "uint256",
              "name": "height",
              "type": "uint256"
            },
            {
              "internalType": "enum Trees.TreeType",
              "name": "treeType",
              "type": "uint8"
            },
            {
              "internalType": "uint256",
              "name": "bucketsUntilNextHeight",
              "type": "uint256"
            }
          ],
          "internalType": "struct Trees.Tree",
          "name": "",
          "type": "tuple"
        }
      ],
      "stateMutability": "view",
      "type": "function"
    },
    {
      "inputs": [
        {
          "internalType": "address",
          "name": "to",
          "type": "address"
        },
        {
          "internalType": "uint256",
          "name": "treeType",
          "type": "uint256"
        }
      ],
      "name": "mintTree",
      "outputs": [],
      "stateMutability": "nonpayable",
      "type": "function"
    },
    {
      "inputs": [
        {
          "internalType": "uint256",
          "name": "treeId",
          "type": "uint256"
        },
        {
          "internalType": "uint256",
          "name": "amountOfBuckets",
          "type": "uint256"
        }
      ],
      "name": "waterTree",
      "outputs": [],
      "stateMutability": "nonpayable",
      "type": "function"
    },
    {
      "inputs": [
        {
          "internalType": "uint256",
          "name": "treeId",
          "type": "uint256"
        }
      ],
      "name": "treeToLotteryTickets",
      "outputs": [
        {
          "internalType": "uint256",
          "name": "",
          "type": "uint256"
        }
      ],
      "stateMutability": "view",
      "type": "function"
    }
  ],
  "bytecode": "0x60806040523480156200001157600080fd5b506040516200321238038062003212833981810160405281019062000037919062000244565b818181600090816200004a919062000514565b5080600190816200005c919062000514565b50505060006007819055506000600860006101000a81548173ffffffffffffffffffffffffffffffffffffffff021916908373ffffffffffffffffffffffffffffffffffffffff1602179055505050620005fb565b6000604051905090565b600080fd5b600080fd5b600080fd5b600080fd5b6000601f19601f8301169050919050565b7f4e487b7100000000000000000000000000000000000000000000000000000000600052604160045260246000fd5b6200011a82620000cf565b810181811067ffffffffffffffff821117156200013c576200013b620000e0565b5b80604052505050565b600062000151620000b1565b90506200015f82826200010f565b919050565b600067ffffffffffffffff821115620001825762000181620000e0565b5b6200018d82620000cf565b9050602081019050919050565b60005b83811015620001ba5780820151818401526020810190506200019d565b60008484015250505050565b6000620001dd620001d78462000164565b62000145565b905082815260208101848484011115620001fc57620001fb620000ca565b5b620002098482856200019a565b509392505050565b600082601f830112620002295762000228620000c5565b5b81516200023b848260208601620001c6565b91505092915050565b600080604083850312156200025e576200025d620000bb565b5b600083015167ffffffffffffffff8111156200027f576200027e620000c0565b5b6200028d8582860162000211565b925050602083015167ffffffffffffffff811115620002b157620002b0620000c0565b5b620002bf8582860162000211565b9150509250929050565b600081519050919050565b7f4e487b7100000000000000000000000000000000000000000000000000000000600052602260045260246000fd5b600060028204905060018216806200031c57607f821691505b602082108103620003325762000331620002d4565b5b50919050565b60008190508160005260206000209050919050565b60006020601f8301049050919050565b600082821b905092915050565b6000600883026200039c7fffffffffffffffffffffffffffffffffffffffffffffffffffffffffffffffff826200035d565b620003a886836200035d565b95508019841693508086168417925050509392505050565b6000819050919050565b6000819050919050565b6000620003f5620003ef620003e984620003c0565b620003ca565b620003c0565b9050919050565b6000819050919050565b6200041183620003d4565b620004296200042082620003fc565b8484546200036a565b825550505050565b600090565b6200044062000431565b6200044d81848462000406565b505050565b5b8181101562000475576200046960008262000436565b60018101905062000453565b5050565b601f821115620004c4576200048e8162000338565b62000499846200034d565b81016020851015620004a9578190505b620004c1620004b8856200034d565b83018262000452565b50505b505050565b600082821c905092915050565b6000620004e960001984600802620004c9565b1980831691505092915050565b6000620005048383620004d6565b9150826002028217905092915050565b6200051f82620002c9565b67ffffffffffffffff8111156200053b576200053a620000e0565b5b62000547825462000303565b6200055482828562000479565b600060209050601f8311600181146200058c576000841562000577578287015190505b620005838582620004f6565b865550620005f3565b601f1984166200059c8662000338565b60005b82811015620005c6578489015182556001820191506020850194506020810190506200059f565b86831015620005e65784890151620005e2601f891682620004d6565b8355505b6001600288020188555050505b505050505050565b612c07806200060b6000396000f3fe608060405234801561001057600080fd5b506004361061010b5760003560e01c806395d89b41116100a2578063cd708a6411610071578063cd708a64146102c8578063d56e2101146102f8578063e1bfd93814610328578063e985e9c514610344578063f5c7eb91146103745761010b565b806395d89b4114610242578063a22cb46514610260578063b88d4fde1461027c578063c87b56dd146102985761010b565b806323b872dd116100de57806323b872dd146101aa57806342842e0e146101c65780636352211e146101e257806370a08231146102125761010b565b806301ffc9a71461011057806306fdde0314610140578063081812fc1461015e578063095ea7b31461018e575b600080fd5b61012a60048036038101906101259190611bdd565b610390565b6040516101379190611c25565b60405180910390f35b610148610472565b6040516101559190611cd0565b60405180910390f35b61017860048036038101906101739190611d28565b610504565b6040516101859190611d96565b60405180910390f35b6101a860048036038101906101a39190611ddd565b61054a565b005b6101c460048036038101906101bf9190611e1d565b610661565b005b6101e060048036038101906101db9190611e1d565b6106c1565b005b6101fc60048036038101906101f79190611d28565b6106e1565b6040516102099190611d96565b60405180910390f35b61022c60048036038101906102279190611e70565b610767565b6040516102399190611eac565b60405180910390f35b61024a61081e565b6040516102579190611cd0565b60405180910390f35b61027a60048036038101906102759190611ef3565b6108b0565b005b61029660048036038101906102919190612068565b6108c6565b005b6102b260048036038101906102ad9190611d28565b610928565b6040516102bf9190611cd0565b60405180910390f35b6102e260048036038101906102dd9190611d28565b610990565b6040516102ef9190611eac565b60405180910390f35b610312600480360381019061030d9190611d28565b6109b0565b60405161031f91906121b3565b60405180910390f35b610342600480360381019061033d9190611ddd565b610a2c565b005b61035e600480360381019061035991906121ce565b610b84565b60405161036b9190611c25565b60405180910390f35b61038e6004803603810190610389919061220e565b610c18565b005b60007f80ac58cd000000000000000000000000000000000000000000000000000000007bffffffffffffffffffffffffffffffffffffffffffffffffffffffff1916827bffffffffffffffffffffffffffffffffffffffffffffffffffffffff1916148061045b57507f5b5e139f000000000000000000000000000000000000000000000000000000007bffffffffffffffffffffffffffffffffffffffffffffffffffffffff1916827bffffffffffffffffffffffffffffffffffffffffffffffffffffffff1916145b8061046b575061046a82610de9565b5b9050919050565b6060600080546104819061227d565b80601f01602080910402602001604051908101604052809291908181526020018280546104ad9061227d565b80156104fa5780601f106104cf576101008083540402835291602001916104fa565b820191906000526020600020905b8154815290600101906020018083116104dd57829003601f168201915b5050505050905090565b600061050f82610e53565b6004600083815260200190815260200160002060009054906101000a900473ffffffffffffffffffffffffffffffffffffffff169050919050565b6000610555826106e1565b90508073ffffffffffffffffffffffffffffffffffffffff168373ffffffffffffffffffffffffffffffffffffffff16036105c5576040517f08c379a00000000000000000000000000000000000000000000000000000000081526004016105bc90612320565b60405180910390fd5b8073ffffffffffffffffffffffffffffffffffffffff166105e4610e9e565b73ffffffffffffffffffffffffffffffffffffffff16148061061357506106128161060d610e9e565b610b84565b5b610652576040517f08c379a0000000000000000000000000000000000000000000000000000000008152600401610649906123b2565b60405180910390fd5b61065c8383610ea6565b505050565b61067261066c610e9e565b82610f5f565b6106b1576040517f08c379a00000000000000000000000000000000000000000000000000000000081526004016106a890612444565b60405180910390fd5b6106bc838383610ff4565b505050565b6106dc838383604051806020016040528060008152506108c6565b505050565b6000806106ed836112ed565b9050600073ffffffffffffffffffffffffffffffffffffffff168173ffffffffffffffffffffffffffffffffffffffff160361075e576040517f08c379a0000000000000000000000000000000000000000000000000000000008152600401610755906124b0565b60405180910390fd5b80915050919050565b60008073ffffffffffffffffffffffffffffffffffffffff168273ffffffffffffffffffffffffffffffffffffffff16036107d7576040517f08c379a00000000000000000000000000000000000000000000000000000000081526004016107ce90612542565b60405180910390fd5b600360008373ffffffffffffffffffffffffffffffffffffffff1673ffffffffffffffffffffffffffffffffffffffff168152602001908152602001600020549050919050565b60606001805461082d9061227d565b80601f01602080910402602001604051908101604052809291908181526020018280546108599061227d565b80156108a65780601f1061087b576101008083540402835291602001916108a6565b820191906000526020600020905b81548152906001019060200180831161088957829003601f168201915b5050505050905090565b6108c26108bb610e9e565b838361132a565b5050565b6108d76108d1610e9e565b83610f5f565b610916576040517f08c379a000000000000000000000000000000000000000000000000000000000815260040161090d90612444565b60405180910390fd5b61092284848484611496565b50505050565b606061093382610e53565b600061093d6114f2565b9050600081511161095d5760405180602001604052806000815250610988565b8061096784611509565b60405160200161097892919061259e565b6040516020818303038152906040525b915050919050565b600060066000838152602001908152602001600020600001549050919050565b6109b8611b3e565b60066000838152602001908152602001600020604051806060016040529081600082015481526020016001820160009054906101000a900460ff166002811115610a0557610a046120fa565b5b6002811115610a1757610a166120fa565b5b81526020016002820154815250509050919050565b600860009054906101000a900473ffffffffffffffffffffffffffffffffffffffff1673ffffffffffffffffffffffffffffffffffffffff16610a6d610e9e565b73ffffffffffffffffffffffffffffffffffffffff1614610ac3576040517f08c379a0000000000000000000000000000000000000000000000000000000008152600401610aba90612634565b60405180910390fd5b610ae38260076000815480929190610ada90612683565b919050556115d7565b604051806060016040528060018152602001826002811115610b0857610b076120fa565b5b6002811115610b1a57610b196120fa565b5b815260200160018152506006600060075481526020019081526020016000206000820151816000015560208201518160010160006101000a81548160ff02191690836002811115610b6e57610b6d6120fa565b5b0217905550604082015181600201559050505050565b6000600560008473ffffffffffffffffffffffffffffffffffffffff1673ffffffffffffffffffffffffffffffffffffffff16815260200190815260200160002060008373ffffffffffffffffffffffffffffffffffffffff1673ffffffffffffffffffffffffffffffffffffffff16815260200190815260200160002060009054906101000a900460ff16905092915050565b600860009054906101000a900473ffffffffffffffffffffffffffffffffffffffff1673ffffffffffffffffffffffffffffffffffffffff16610c59610e9e565b73ffffffffffffffffffffffffffffffffffffffff1614610caf576040517f08c379a0000000000000000000000000000000000000000000000000000000008152600401610ca69061273d565b60405180910390fd5b600060066000848152602001908152602001600020604051806060016040529081600082015481526020016001820160009054906101000a900460ff166002811115610cfe57610cfd6120fa565b5b6002811115610d1057610d0f6120fa565b5b815260200160028201548152505090508181604001511115610d4a578181604001818151610d3e919061275d565b91508181525050610d89565b806000018051809190610d5c90612683565b815250508181604001518260000151610d759190612791565b610d7f919061275d565b8160400181815250505b80600660008581526020019081526020016000206000820151816000015560208201518160010160006101000a81548160ff02191690836002811115610dd257610dd16120fa565b5b021790555060408201518160020155905050505050565b60007f01ffc9a7000000000000000000000000000000000000000000000000000000007bffffffffffffffffffffffffffffffffffffffffffffffffffffffff1916827bffffffffffffffffffffffffffffffffffffffffffffffffffffffff1916149050919050565b610e5c816117f4565b610e9b576040517f08c379a0000000000000000000000000000000000000000000000000000000008152600401610e92906124b0565b60405180910390fd5b50565b600033905090565b816004600083815260200190815260200160002060006101000a81548173ffffffffffffffffffffffffffffffffffffffff021916908373ffffffffffffffffffffffffffffffffffffffff160217905550808273ffffffffffffffffffffffffffffffffffffffff16610f19836106e1565b73ffffffffffffffffffffffffffffffffffffffff167f8c5be1e5ebec7d5bd14f71427d1e84f3dd0314c0f7b2291e5b200ac8c7c3b92560405160405180910390a45050565b600080610f6b836106e1565b90508073ffffffffffffffffffffffffffffffffffffffff168473ffffffffffffffffffffffffffffffffffffffff161480610fad5750610fac8185610b84565b5b80610feb57508373ffffffffffffffffffffffffffffffffffffffff16610fd384610504565b73ffffffffffffffffffffffffffffffffffffffff16145b91505092915050565b8273ffffffffffffffffffffffffffffffffffffffff16611014826106e1565b73ffffffffffffffffffffffffffffffffffffffff161461106a576040517f08c379a000000000000000000000000000000000000000000000000000000000815260040161106190612837565b60405180910390fd5b600073ffffffffffffffffffffffffffffffffffffffff168273ffffffffffffffffffffffffffffffffffffffff16036110d9576040517f08c379a00000000000000000000000000000000000000000000000000000000081526004016110d0906128c9565b60405180910390fd5b6110e68383836001611835565b8273ffffffffffffffffffffffffffffffffffffffff16611106826106e1565b73ffffffffffffffffffffffffffffffffffffffff161461115c576040517f08c379a000000000000000000000000000000000000000000000000000000000815260040161115390612837565b60405180910390fd5b6004600082815260200190815260200160002060006101000a81549073ffffffffffffffffffffffffffffffffffffffff02191690556001600360008573ffffffffffffffffffffffffffffffffffffffff1673ffffffffffffffffffffffffffffffffffffffff168152602001908152602001600020600082825403925050819055506001600360008473ffffffffffffffffffffffffffffffffffffffff1673ffffffffffffffffffffffffffffffffffffffff16815260200190815260200160002060008282540192505081905550816002600083815260200190815260200160002060006101000a81548173ffffffffffffffffffffffffffffffffffffffff021916908373ffffffffffffffffffffffffffffffffffffffff160217905550808273ffffffffffffffffffffffffffffffffffffffff168473ffffffffffffffffffffffffffffffffffffffff167fddf252ad1be2c89b69c2b068fc378daa952ba7f163c4a11628f55a4df523b3ef60405160405180910390a46112e8838383600161183b565b505050565b60006002600083815260200190815260200160002060009054906101000a900473ffffffffffffffffffffffffffffffffffffffff169050919050565b8173ffffffffffffffffffffffffffffffffffffffff168373ffffffffffffffffffffffffffffffffffffffff1603611398576040517f08c379a000000000000000000000000000000000000000000000000000000000815260040161138f90612935565b60405180910390fd5b80600560008573ffffffffffffffffffffffffffffffffffffffff1673ffffffffffffffffffffffffffffffffffffffff16815260200190815260200160002060008473ffffffffffffffffffffffffffffffffffffffff1673ffffffffffffffffffffffffffffffffffffffff16815260200190815260200160002060006101000a81548160ff0219169083151502179055508173ffffffffffffffffffffffffffffffffffffffff168373ffffffffffffffffffffffffffffffffffffffff167f17307eab39ab6107e8899845ad3d59bd9653f200f220920489ca2b5937696c31836040516114899190611c25565b60405180910390a3505050565b6114a1848484610ff4565b6114ad84848484611841565b6114ec576040517f08c379a00000000000000000000000000000000000000000000000000000000081526004016114e3906129c7565b60405180910390fd5b50505050565b606060405180602001604052806000815250905090565b606060006001611518846119c8565b01905060008167ffffffffffffffff81111561153757611536611f3d565b5b6040519080825280601f01601f1916602001820160405280156115695781602001600182028036833780820191505090505b509050600082602001820190505b6001156115cc578080600190039150507f3031323334353637383961626364656600000000000000000000000000000000600a86061a8153600a85816115c0576115bf6129e7565b5b04945060008503611577575b819350505050919050565b600073ffffffffffffffffffffffffffffffffffffffff168273ffffffffffffffffffffffffffffffffffffffff1603611646576040517f08c379a000000000000000000000000000000000000000000000000000000000815260040161163d90612a62565b60405180910390fd5b61164f816117f4565b1561168f576040517f08c379a000000000000000000000000000000000000000000000000000000000815260040161168690612ace565b60405180910390fd5b61169d600083836001611835565b6116a6816117f4565b156116e6576040517f08c379a00000000000000000000000000000000000000000000000000000000081526004016116dd90612ace565b60405180910390fd5b6001600360008473ffffffffffffffffffffffffffffffffffffffff1673ffffffffffffffffffffffffffffffffffffffff16815260200190815260200160002060008282540192505081905550816002600083815260200190815260200160002060006101000a81548173ffffffffffffffffffffffffffffffffffffffff021916908373ffffffffffffffffffffffffffffffffffffffff160217905550808273ffffffffffffffffffffffffffffffffffffffff16600073ffffffffffffffffffffffffffffffffffffffff167fddf252ad1be2c89b69c2b068fc378daa952ba7f163c4a11628f55a4df523b3ef60405160405180910390a46117f060008383600161183b565b5050565b60008073ffffffffffffffffffffffffffffffffffffffff16611816836112ed565b73ffffffffffffffffffffffffffffffffffffffff1614159050919050565b50505050565b50505050565b60006118628473ffffffffffffffffffffffffffffffffffffffff16611b1b565b156119bb578373ffffffffffffffffffffffffffffffffffffffff1663150b7a0261188b610e9e565b8786866040518563ffffffff1660e01b81526004016118ad9493929190612b43565b6020604051808303816000875af19250505080156118e957506040513d601f19601f820116820180604052508101906118e69190612ba4565b60015b61196b573d8060008114611919576040519150601f19603f3d011682016040523d82523d6000602084013e61191e565b606091505b506000815103611963576040517f08c379a000000000000000000000000000000000000000000000000000000000815260040161195a906129c7565b60405180910390fd5b805181602001fd5b63150b7a0260e01b7bffffffffffffffffffffffffffffffffffffffffffffffffffffffff1916817bffffffffffffffffffffffffffffffffffffffffffffffffffffffff1916149150506119c0565b600190505b949350505050565b600080600090507a184f03e93ff9f4daa797ed6e38ed64bf6a1f0100000000000000008310611a26577a184f03e93ff9f4daa797ed6e38ed64bf6a1f0100000000000000008381611a1c57611a1b6129e7565b5b0492506040810190505b6d04ee2d6d415b85acef81000000008310611a63576d04ee2d6d415b85acef81000000008381611a5957611a586129e7565b5b0492506020810190505b662386f26fc100008310611a9257662386f26fc100008381611a8857611a876129e7565b5b0492506010810190505b6305f5e1008310611abb576305f5e1008381611ab157611ab06129e7565b5b0492506008810190505b6127108310611ae0576127108381611ad657611ad56129e7565b5b0492506004810190505b60648310611b035760648381611af957611af86129e7565b5b0492506002810190505b600a8310611b12576001810190505b80915050919050565b6000808273ffffffffffffffffffffffffffffffffffffffff163b119050919050565b60405180606001604052806000815260200160006002811115611b6457611b636120fa565b5b8152602001600081525090565b6000604051905090565b600080fd5b600080fd5b60007fffffffff0000000000000000000000000000000000000000000000000000000082169050919050565b611bba81611b85565b8114611bc557600080fd5b50565b600081359050611bd781611bb1565b92915050565b600060208284031215611bf357611bf2611b7b565b5b6000611c0184828501611bc8565b91505092915050565b60008115159050919050565b611c1f81611c0a565b82525050565b6000602082019050611c3a6000830184611c16565b92915050565b600081519050919050565b600082825260208201905092915050565b60005b83811015611c7a578082015181840152602081019050611c5f565b60008484015250505050565b6000601f19601f8301169050919050565b6000611ca282611c40565b611cac8185611c4b565b9350611cbc818560208601611c5c565b611cc581611c86565b840191505092915050565b60006020820190508181036000830152611cea8184611c97565b905092915050565b6000819050919050565b611d0581611cf2565b8114611d1057600080fd5b50565b600081359050611d2281611cfc565b92915050565b600060208284031215611d3e57611d3d611b7b565b5b6000611d4c84828501611d13565b91505092915050565b600073ffffffffffffffffffffffffffffffffffffffff82169050919050565b6000611d8082611d55565b9050919050565b611d9081611d75565b82525050565b6000602082019050611dab6000830184611d87565b92915050565b611dba81611d75565b8114611dc557600080fd5b50565b600081359050611dd781611db1565b92915050565b60008060408385031215611df457611df3611b7b565b5b6000611e0285828601611dc8565b9250506020611e1385828601611d13565b9150509250929050565b600080600060608486031215611e3657611e35611b7b565b5b6000611e4486828701611dc8565b9350506020611e5586828701611dc8565b9250506040611e6686828701611d13565b9150509250925092565b600060208284031215611e8657611e85611b7b565b5b6000611e9484828501611dc8565b91505092915050565b611ea681611cf2565b82525050565b6000602082019050611ec16000830184611e9d565b92915050565b611ed081611c0a565b8114611edb57600080fd5b50565b600081359050611eed81611ec7565b92915050565b60008060408385031215611f0a57611f09611b7b565b5b6000611f1885828601611dc8565b9250506020611f2985828601611ede565b9150509250929050565b600080fd5b600080fd5b7f4e487b7100000000000000000000000000000000000000000000000000000000600052604160045260246000fd5b611f7582611c86565b810181811067ffffffffffffffff82111715611f9457611f93611f3d565b5b80604052505050565b6000611fa7611b71565b9050611fb38282611f6c565b919050565b600067ffffffffffffffff821115611fd357611fd2611f3d565b5b611fdc82611c86565b9050602081019050919050565b82818337600083830152505050565b600061200b61200684611fb8565b611f9d565b90508281526020810184848401111561202757612026611f38565b5b612032848285611fe9565b509392505050565b600082601f83011261204f5761204e611f33565b5b813561205f848260208601611ff8565b91505092915050565b6000806000806080858703121561208257612081611b7b565b5b600061209087828801611dc8565b94505060206120a187828801611dc8565b93505060406120b287828801611d13565b925050606085013567ffffffffffffffff8111156120d3576120d2611b80565b5b6120df8782880161203a565b91505092959194509250565b6120f481611cf2565b82525050565b7f4e487b7100000000000000000000000000000000000000000000000000000000600052602160045260246000fd5b6003811061213a576121396120fa565b5b50565b600081905061214b82612129565b919050565b600061215b8261213d565b9050919050565b61216b81612150565b82525050565b60608201600082015161218760008501826120eb565b50602082015161219a6020850182612162565b5060408201516121ad60408501826120eb565b50505050565b60006060820190506121c86000830184612171565b92915050565b600080604083850312156121e5576121e4611b7b565b5b60006121f385828601611dc8565b925050602061220485828601611dc8565b9150509250929050565b6000806040838503121561222557612224611b7b565b5b600061223385828601611d13565b925050602061224485828601611d13565b9150509250929050565b7f4e487b7100000000000000000000000000000000000000000000000000000000600052602260045260246000fd5b6000600282049050600182168061229557607f821691505b6020821081036122a8576122a761224e565b5b50919050565b7f4552433732313a20617070726f76616c20746f2063757272656e74206f776e6560008201527f7200000000000000000000000000000000000000000000000000000000000000602082015250565b600061230a602183611c4b565b9150612315826122ae565b604082019050919050565b60006020820190508181036000830152612339816122fd565b9050919050565b7f4552433732313a20617070726f76652063616c6c6572206973206e6f7420746f60008201527f6b656e206f776e6572206f7220617070726f76656420666f7220616c6c000000602082015250565b600061239c603d83611c4b565b91506123a782612340565b604082019050919050565b600060208201905081810360008301526123cb8161238f565b9050919050565b7f4552433732313a2063616c6c6572206973206e6f7420746f6b656e206f776e6560008201527f72206f7220617070726f76656400000000000000000000000000000000000000602082015250565b600061242e602d83611c4b565b9150612439826123d2565b604082019050919050565b6000602082019050818103600083015261245d81612421565b9050919050565b7f4552433732313a20696e76616c696420746f6b656e2049440000000000000000600082015250565b600061249a601883611c4b565b91506124a582612464565b602082019050919050565b600060208201905081810360008301526124c98161248d565b9050919050565b7f4552433732313a2061646472657373207a65726f206973206e6f74206120766160008201527f6c6964206f776e65720000000000000000000000000000000000000000000000602082015250565b600061252c602983611c4b565b9150612537826124d0565b604082019050919050565b6000602082019050818103600083015261255b8161251f565b9050919050565b600081905092915050565b600061257882611c40565b6125828185612562565b9350612592818560208601611c5c565b80840191505092915050565b60006125aa828561256d565b91506125b6828461256d565b91508190509392505050565b7f4f6e6c7920666f7265737420636f6e747261637420697320616c6c6f7765642060008201527f746f206d696e7400000000000000000000000000000000000000000000000000602082015250565b600061261e602783611c4b565b9150612629826125c2565b604082019050919050565b6000602082019050818103600083015261264d81612611565b9050919050565b7f4e487b7100000000000000000000000000000000000000000000000000000000600052601160045260246000fd5b600061268e82611cf2565b91507fffffffffffffffffffffffffffffffffffffffffffffffffffffffffffffffff82036126c0576126bf612654565b5b600182019050919050565b7f4f6e6c7920666f7265737420636f6e747261637420697320616c6c6f7765642060008201527f746f207761746572000000000000000000000000000000000000000000000000602082015250565b6000612727602883611c4b565b9150612732826126cb565b604082019050919050565b600060208201905081810360008301526127568161271a565b9050919050565b600061276882611cf2565b915061277383611cf2565b925082820390508181111561278b5761278a612654565b5b92915050565b600061279c82611cf2565b91506127a783611cf2565b92508282019050808211156127bf576127be612654565b5b92915050565b7f4552433732313a207472616e736665722066726f6d20696e636f72726563742060008201527f6f776e6572000000000000000000000000000000000000000000000000000000602082015250565b6000612821602583611c4b565b915061282c826127c5565b604082019050919050565b6000602082019050818103600083015261285081612814565b9050919050565b7f4552433732313a207472616e7366657220746f20746865207a65726f2061646460008201527f7265737300000000000000000000000000000000000000000000000000000000602082015250565b60006128b3602483611c4b565b91506128be82612857565b604082019050919050565b600060208201905081810360008301526128e2816128a6565b9050919050565b7f4552433732313a20617070726f766520746f2063616c6c657200000000000000600082015250565b600061291f601983611c4b565b915061292a826128e9565b602082019050919050565b6000602082019050818103600083015261294e81612912565b9050919050565b7f4552433732313a207472616e7366657220746f206e6f6e20455243373231526560008201527f63656976657220696d706c656d656e7465720000000000000000000000000000602082015250565b60006129b1603283611c4b565b91506129bc82612955565b604082019050919050565b600060208201905081810360008301526129e0816129a4565b9050919050565b7f4e487b7100000000000000000000000000000000000000000000000000000000600052601260045260246000fd5b7f4552433732313a206d696e7420746f20746865207a65726f2061646472657373600082015250565b6000612a4c602083611c4b565b9150612a5782612a16565b602082019050919050565b60006020820190508181036000830152612a7b81612a3f565b9050919050565b7f4552433732313a20746f6b656e20616c7265616479206d696e74656400000000600082015250565b6000612ab8601c83611c4b565b9150612ac382612a82565b602082019050919050565b60006020820190508181036000830152612ae781612aab565b9050919050565b600081519050919050565b600082825260208201905092915050565b6000612b1582612aee565b612b1f8185612af9565b9350612b2f818560208601611c5c565b612b3881611c86565b840191505092915050565b6000608082019050612b586000830187611d87565b612b656020830186611d87565b612b726040830185611e9d565b8181036060830152612b848184612b0a565b905095945050505050565b600081519050612b9e81611bb1565b92915050565b600060208284031215612bba57612bb9611b7b565b5b6000612bc884828501612b8f565b9150509291505056fea26469706673582212200698738b38c32beb94bde470cb8a6c614106f99dbcd0c9880142dde3c81c6f9e64736f6c63430008110033",
  "immutableReferences": {},
  "source": "pragma solidity ^0.8.0;\n\nimport \"@openzeppelin/contracts/token/ERC721/extensions/ERC721URIStorage.sol\";\n\ncontract Trees is ERC721{\n    enum TreeType{\n        red, blue, green\n    }\n\n    struct Tree {\n        uint256 height; // = level\n        TreeType treeType;\n        uint256 bucketsUntilNextHeight;\n    }\n\n    mapping(uint256 => Tree) _treeIdToTree;\n    uint256 _tokenCount;\n\n    address _forest;\n\n    constructor(\n        string memory name,\n        string memory symbol\n    ) ERC721(name, symbol) {\n        _tokenCount = 0;\n        _forest = address(0);\n    }\n\n    function getTree(uint256 tokenId) public view returns(Tree memory) {\n        return _treeIdToTree[tokenId];\n    }\n\n    function mintTree(address to, uint256 treeType) public {\n        require(_msgSender() == _forest, \"Only forest contract is allowed to mint\");\n        _mint(to, _tokenCount++);\n        _treeIdToTree[_tokenCount] = Tree(1, TreeType(treeType),1);\n    }\n\n    function waterTree(uint256 treeId, uint256 amountOfBuckets) public{\n        require(_msgSender() == _forest, \"Only forest contract is allowed to water\");\n        Tree memory tree = _treeIdToTree[treeId];\n        if(tree.bucketsUntilNextHeight > amountOfBuckets) {\n           tree.bucketsUntilNextHeight -= amountOfBuckets;\n        }\n        else{\n            tree.height++; // lvl up\n            tree.bucketsUntilNextHeight = tree.height + tree.bucketsUntilNextHeight - amountOfBuckets;\n        }\n        _treeIdToTree[treeId] = tree;\n    }\n\n    function treeToLotteryTickets(uint256 treeId) public view returns(uint256){\n        return _treeIdToTree[treeId].height;\n    }\n}",
  "sourcePath": "/home/prawin/Documents/EthPrague/contracts/Tree.sol",
  "compiler": {
    "name": "solc",
    "version": "0.8.17+commit.8df45f5f.Emscripten.clang"
  },
  "schemaVersion": "3.4.11",
  "updatedAt": "2023-06-10T10:37:55.553Z",
  "devdoc": {
    "kind": "dev",
    "methods": {
      "approve(address,uint256)": {
        "details": "See {IERC721-approve}."
      },
      "balanceOf(address)": {
        "details": "See {IERC721-balanceOf}."
      },
      "getApproved(uint256)": {
        "details": "See {IERC721-getApproved}."
      },
      "isApprovedForAll(address,address)": {
        "details": "See {IERC721-isApprovedForAll}."
      },
      "name()": {
        "details": "See {IERC721Metadata-name}."
      },
      "ownerOf(uint256)": {
        "details": "See {IERC721-ownerOf}."
      },
      "safeTransferFrom(address,address,uint256)": {
        "details": "See {IERC721-safeTransferFrom}."
      },
      "safeTransferFrom(address,address,uint256,bytes)": {
        "details": "See {IERC721-safeTransferFrom}."
      },
      "setApprovalForAll(address,bool)": {
        "details": "See {IERC721-setApprovalForAll}."
      },
      "supportsInterface(bytes4)": {
        "details": "See {IERC165-supportsInterface}."
      },
      "symbol()": {
        "details": "See {IERC721Metadata-symbol}."
      },
      "tokenURI(uint256)": {
        "details": "See {IERC721Metadata-tokenURI}."
      },
      "transferFrom(address,address,uint256)": {
        "details": "See {IERC721-transferFrom}."
      }
    },
    "version": 1
  },
  "userdoc": {
    "kind": "user",
    "methods": {},
    "version": 1
  }
}