{
  "contractName": "WaterBucket",
  "abi": [
    {
      "inputs": [
        {
          "internalType": "string",
          "name": "name",
          "type": "string"
        },
        {
          "internalType": "string",
          "name": "symbol",
          "type": "string"
        }
      ],
      "stateMutability": "nonpayable",
      "type": "constructor"
    },
    {
      "anonymous": false,
      "inputs": [
        {
          "indexed": true,
          "internalType": "address",
          "name": "owner",
          "type": "address"
        },
        {
          "indexed": true,
          "internalType": "address",
          "name": "spender",
          "type": "address"
        },
        {
          "indexed": false,
          "internalType": "uint256",
          "name": "value",
          "type": "uint256"
        }
      ],
      "name": "Approval",
      "type": "event"
    },
    {
      "anonymous": false,
      "inputs": [
        {
          "indexed": true,
          "internalType": "address",
          "name": "from",
          "type": "address"
        },
        {
          "indexed": true,
          "internalType": "address",
          "name": "to",
          "type": "address"
        },
        {
          "indexed": false,
          "internalType": "uint256",
          "name": "value",
          "type": "uint256"
        }
      ],
      "name": "Transfer",
      "type": "event"
    },
    {
      "inputs": [
        {
          "internalType": "address",
          "name": "owner",
          "type": "address"
        },
        {
          "internalType": "address",
          "name": "spender",
          "type": "address"
        }
      ],
      "name": "allowance",
      "outputs": [
        {
          "internalType": "uint256",
          "name": "",
          "type": "uint256"
        }
      ],
      "stateMutability": "view",
      "type": "function"
    },
    {
      "inputs": [
        {
          "internalType": "address",
          "name": "spender",
          "type": "address"
        },
        {
          "internalType": "uint256",
          "name": "amount",
          "type": "uint256"
        }
      ],
      "name": "approve",
      "outputs": [
        {
          "internalType": "bool",
          "name": "",
          "type": "bool"
        }
      ],
      "stateMutability": "nonpayable",
      "type": "function"
    },
    {
      "inputs": [
        {
          "internalType": "address",
          "name": "account",
          "type": "address"
        }
      ],
      "name": "balanceOf",
      "outputs": [
        {
          "internalType": "uint256",
          "name": "",
          "type": "uint256"
        }
      ],
      "stateMutability": "view",
      "type": "function"
    },
    {
      "inputs": [],
      "name": "decimals",
      "outputs": [
        {
          "internalType": "uint8",
          "name": "",
          "type": "uint8"
        }
      ],
      "stateMutability": "view",
      "type": "function"
    },
    {
      "inputs": [
        {
          "internalType": "address",
          "name": "spender",
          "type": "address"
        },
        {
          "internalType": "uint256",
          "name": "subtractedValue",
          "type": "uint256"
        }
      ],
      "name": "decreaseAllowance",
      "outputs": [
        {
          "internalType": "bool",
          "name": "",
          "type": "bool"
        }
      ],
      "stateMutability": "nonpayable",
      "type": "function"
    },
    {
      "inputs": [
        {
          "internalType": "address",
          "name": "spender",
          "type": "address"
        },
        {
          "internalType": "uint256",
          "name": "addedValue",
          "type": "uint256"
        }
      ],
      "name": "increaseAllowance",
      "outputs": [
        {
          "internalType": "bool",
          "name": "",
          "type": "bool"
        }
      ],
      "stateMutability": "nonpayable",
      "type": "function"
    },
    {
      "inputs": [],
      "name": "name",
      "outputs": [
        {
          "internalType": "string",
          "name": "",
          "type": "string"
        }
      ],
      "stateMutability": "view",
      "type": "function"
    },
    {
      "inputs": [],
      "name": "symbol",
      "outputs": [
        {
          "internalType": "string",
          "name": "",
          "type": "string"
        }
      ],
      "stateMutability": "view",
      "type": "function"
    },
    {
      "inputs": [],
      "name": "totalSupply",
      "outputs": [
        {
          "internalType": "uint256",
          "name": "",
          "type": "uint256"
        }
      ],
      "stateMutability": "view",
      "type": "function"
    },
    {
      "inputs": [
        {
          "internalType": "address",
          "name": "to",
          "type": "address"
        },
        {
          "internalType": "uint256",
          "name": "amount",
          "type": "uint256"
        }
      ],
      "name": "transfer",
      "outputs": [
        {
          "internalType": "bool",
          "name": "",
          "type": "bool"
        }
      ],
      "stateMutability": "nonpayable",
      "type": "function"
    },
    {
      "inputs": [
        {
          "internalType": "address",
          "name": "from",
          "type": "address"
        },
        {
          "internalType": "address",
          "name": "to",
          "type": "address"
        },
        {
          "internalType": "uint256",
          "name": "amount",
          "type": "uint256"
        }
      ],
      "name": "transferFrom",
      "outputs": [
        {
          "internalType": "bool",
          "name": "",
          "type": "bool"
        }
      ],
      "stateMutability": "nonpayable",
      "type": "function"
    },
    {
      "inputs": [
        {
          "internalType": "address",
          "name": "to",
          "type": "address"
        },
        {
          "internalType": "uint256",
          "name": "amount",
          "type": "uint256"
        }
      ],
      "name": "mint",
      "outputs": [],
      "stateMutability": "nonpayable",
      "type": "function"
    },
    {
      "inputs": [
        {
          "internalType": "address",
          "name": "to",
          "type": "address"
        },
        {
          "internalType": "uint256",
          "name": "amount",
          "type": "uint256"
        }
      ],
      "name": "use",
      "outputs": [],
      "stateMutability": "nonpayable",
      "type": "function"
    }
  ],
  "bytecode": "0x60806040523480156200001157600080fd5b5060405162001fb138038062001fb183398181016040528101906200003791906200023c565b818181600390816200004a91906200050c565b5080600490816200005c91906200050c565b5050506000600560006101000a81548173ffffffffffffffffffffffffffffffffffffffff021916908373ffffffffffffffffffffffffffffffffffffffff1602179055505050620005f3565b6000604051905090565b600080fd5b600080fd5b600080fd5b600080fd5b6000601f19601f8301169050919050565b7f4e487b7100000000000000000000000000000000000000000000000000000000600052604160045260246000fd5b6200011282620000c7565b810181811067ffffffffffffffff82111715620001345762000133620000d8565b5b80604052505050565b600062000149620000a9565b905062000157828262000107565b919050565b600067ffffffffffffffff8211156200017a5762000179620000d8565b5b6200018582620000c7565b9050602081019050919050565b60005b83811015620001b257808201518184015260208101905062000195565b60008484015250505050565b6000620001d5620001cf846200015c565b6200013d565b905082815260208101848484011115620001f457620001f3620000c2565b5b6200020184828562000192565b509392505050565b600082601f830112620002215762000220620000bd565b5b815162000233848260208601620001be565b91505092915050565b60008060408385031215620002565762000255620000b3565b5b600083015167ffffffffffffffff811115620002775762000276620000b8565b5b620002858582860162000209565b925050602083015167ffffffffffffffff811115620002a957620002a8620000b8565b5b620002b78582860162000209565b9150509250929050565b600081519050919050565b7f4e487b7100000000000000000000000000000000000000000000000000000000600052602260045260246000fd5b600060028204905060018216806200031457607f821691505b6020821081036200032a5762000329620002cc565b5b50919050565b60008190508160005260206000209050919050565b60006020601f8301049050919050565b600082821b905092915050565b600060088302620003947fffffffffffffffffffffffffffffffffffffffffffffffffffffffffffffffff8262000355565b620003a0868362000355565b95508019841693508086168417925050509392505050565b6000819050919050565b6000819050919050565b6000620003ed620003e7620003e184620003b8565b620003c2565b620003b8565b9050919050565b6000819050919050565b6200040983620003cc565b620004216200041882620003f4565b84845462000362565b825550505050565b600090565b6200043862000429565b62000445818484620003fe565b505050565b5b818110156200046d57620004616000826200042e565b6001810190506200044b565b5050565b601f821115620004bc57620004868162000330565b620004918462000345565b81016020851015620004a1578190505b620004b9620004b08562000345565b8301826200044a565b50505b505050565b600082821c905092915050565b6000620004e160001984600802620004c1565b1980831691505092915050565b6000620004fc8383620004ce565b9150826002028217905092915050565b6200051782620002c1565b67ffffffffffffffff811115620005335762000532620000d8565b5b6200053f8254620002fb565b6200054c82828562000471565b600060209050601f8311600181146200058457600084156200056f578287015190505b6200057b8582620004ee565b865550620005eb565b601f198416620005948662000330565b60005b82811015620005be5784890151825560018201915060208501945060208101905062000597565b86831015620005de5784890151620005da601f891682620004ce565b8355505b6001600288020188555050505b505050505050565b6119ae80620006036000396000f3fe608060405234801561001057600080fd5b50600436106100cf5760003560e01c806340c10f191161008c57806395d89b411161006657806395d89b4114610226578063a457c2d714610244578063a9059cbb14610274578063dd62ed3e146102a4576100cf565b806340c10f19146101be57806369fb2a20146101da57806370a08231146101f6576100cf565b806306fdde03146100d4578063095ea7b3146100f257806318160ddd1461012257806323b872dd14610140578063313ce56714610170578063395093511461018e575b600080fd5b6100dc6102d4565b6040516100e99190610fd7565b60405180910390f35b61010c60048036038101906101079190611092565b610366565b60405161011991906110ed565b60405180910390f35b61012a610389565b6040516101379190611117565b60405180910390f35b61015a60048036038101906101559190611132565b610393565b60405161016791906110ed565b60405180910390f35b6101786103c2565b60405161018591906111a1565b60405180910390f35b6101a860048036038101906101a39190611092565b6103cb565b6040516101b591906110ed565b60405180910390f35b6101d860048036038101906101d39190611092565b610402565b005b6101f460048036038101906101ef9190611092565b6104a7565b005b610210600480360381019061020b91906111bc565b61054c565b60405161021d9190611117565b60405180910390f35b61022e610594565b60405161023b9190610fd7565b60405180910390f35b61025e60048036038101906102599190611092565b610626565b60405161026b91906110ed565b60405180910390f35b61028e60048036038101906102899190611092565b61069d565b60405161029b91906110ed565b60405180910390f35b6102be60048036038101906102b991906111e9565b6106c0565b6040516102cb9190611117565b60405180910390f35b6060600380546102e390611258565b80601f016020809104026020016040519081016040528092919081815260200182805461030f90611258565b801561035c5780601f106103315761010080835404028352916020019161035c565b820191906000526020600020905b81548152906001019060200180831161033f57829003601f168201915b5050505050905090565b600080610371610747565b905061037e81858561074f565b600191505092915050565b6000600254905090565b60008061039e610747565b90506103ab858285610918565b6103b68585856109a4565b60019150509392505050565b60006012905090565b6000806103d6610747565b90506103f78185856103e885896106c0565b6103f291906112b8565b61074f565b600191505092915050565b600560009054906101000a900473ffffffffffffffffffffffffffffffffffffffff1673ffffffffffffffffffffffffffffffffffffffff16610443610747565b73ffffffffffffffffffffffffffffffffffffffff1614610499576040517f08c379a00000000000000000000000000000000000000000000000000000000081526004016104909061135e565b60405180910390fd5b6104a38282610c1a565b5050565b600560009054906101000a900473ffffffffffffffffffffffffffffffffffffffff1673ffffffffffffffffffffffffffffffffffffffff166104e8610747565b73ffffffffffffffffffffffffffffffffffffffff161461053e576040517f08c379a0000000000000000000000000000000000000000000000000000000008152600401610535906113f0565b60405180910390fd5b6105488282610d70565b5050565b60008060008373ffffffffffffffffffffffffffffffffffffffff1673ffffffffffffffffffffffffffffffffffffffff168152602001908152602001600020549050919050565b6060600480546105a390611258565b80601f01602080910402602001604051908101604052809291908181526020018280546105cf90611258565b801561061c5780601f106105f15761010080835404028352916020019161061c565b820191906000526020600020905b8154815290600101906020018083116105ff57829003601f168201915b5050505050905090565b600080610631610747565b9050600061063f82866106c0565b905083811015610684576040517f08c379a000000000000000000000000000000000000000000000000000000000815260040161067b90611482565b60405180910390fd5b610691828686840361074f565b60019250505092915050565b6000806106a8610747565b90506106b58185856109a4565b600191505092915050565b6000600160008473ffffffffffffffffffffffffffffffffffffffff1673ffffffffffffffffffffffffffffffffffffffff16815260200190815260200160002060008373ffffffffffffffffffffffffffffffffffffffff1673ffffffffffffffffffffffffffffffffffffffff16815260200190815260200160002054905092915050565b600033905090565b600073ffffffffffffffffffffffffffffffffffffffff168373ffffffffffffffffffffffffffffffffffffffff16036107be576040517f08c379a00000000000000000000000000000000000000000000000000000000081526004016107b590611514565b60405180910390fd5b600073ffffffffffffffffffffffffffffffffffffffff168273ffffffffffffffffffffffffffffffffffffffff160361082d576040517f08c379a0000000000000000000000000000000000000000000000000000000008152600401610824906115a6565b60405180910390fd5b80600160008573ffffffffffffffffffffffffffffffffffffffff1673ffffffffffffffffffffffffffffffffffffffff16815260200190815260200160002060008473ffffffffffffffffffffffffffffffffffffffff1673ffffffffffffffffffffffffffffffffffffffff168152602001908152602001600020819055508173ffffffffffffffffffffffffffffffffffffffff168373ffffffffffffffffffffffffffffffffffffffff167f8c5be1e5ebec7d5bd14f71427d1e84f3dd0314c0f7b2291e5b200ac8c7c3b9258360405161090b9190611117565b60405180910390a3505050565b600061092484846106c0565b90507fffffffffffffffffffffffffffffffffffffffffffffffffffffffffffffffff811461099e5781811015610990576040517f08c379a000000000000000000000000000000000000000000000000000000000815260040161098790611612565b60405180910390fd5b61099d848484840361074f565b5b50505050565b600073ffffffffffffffffffffffffffffffffffffffff168373ffffffffffffffffffffffffffffffffffffffff1603610a13576040517f08c379a0000000000000000000000000000000000000000000000000000000008152600401610a0a906116a4565b60405180910390fd5b600073ffffffffffffffffffffffffffffffffffffffff168273ffffffffffffffffffffffffffffffffffffffff1603610a82576040517f08c379a0000000000000000000000000000000000000000000000000000000008152600401610a7990611736565b60405180910390fd5b610a8d838383610f3d565b60008060008573ffffffffffffffffffffffffffffffffffffffff1673ffffffffffffffffffffffffffffffffffffffff16815260200190815260200160002054905081811015610b13576040517f08c379a0000000000000000000000000000000000000000000000000000000008152600401610b0a906117c8565b60405180910390fd5b8181036000808673ffffffffffffffffffffffffffffffffffffffff1673ffffffffffffffffffffffffffffffffffffffff16815260200190815260200160002081905550816000808573ffffffffffffffffffffffffffffffffffffffff1673ffffffffffffffffffffffffffffffffffffffff168152602001908152602001600020600082825401925050819055508273ffffffffffffffffffffffffffffffffffffffff168473ffffffffffffffffffffffffffffffffffffffff167fddf252ad1be2c89b69c2b068fc378daa952ba7f163c4a11628f55a4df523b3ef84604051610c019190611117565b60405180910390a3610c14848484610f42565b50505050565b600073ffffffffffffffffffffffffffffffffffffffff168273ffffffffffffffffffffffffffffffffffffffff1603610c89576040517f08c379a0000000000000000000000000000000000000000000000000000000008152600401610c8090611834565b60405180910390fd5b610c9560008383610f3d565b8060026000828254610ca791906112b8565b92505081905550806000808473ffffffffffffffffffffffffffffffffffffffff1673ffffffffffffffffffffffffffffffffffffffff168152602001908152602001600020600082825401925050819055508173ffffffffffffffffffffffffffffffffffffffff16600073ffffffffffffffffffffffffffffffffffffffff167fddf252ad1be2c89b69c2b068fc378daa952ba7f163c4a11628f55a4df523b3ef83604051610d589190611117565b60405180910390a3610d6c60008383610f42565b5050565b600073ffffffffffffffffffffffffffffffffffffffff168273ffffffffffffffffffffffffffffffffffffffff1603610ddf576040517f08c379a0000000000000000000000000000000000000000000000000000000008152600401610dd6906118c6565b60405180910390fd5b610deb82600083610f3d565b60008060008473ffffffffffffffffffffffffffffffffffffffff1673ffffffffffffffffffffffffffffffffffffffff16815260200190815260200160002054905081811015610e71576040517f08c379a0000000000000000000000000000000000000000000000000000000008152600401610e6890611958565b60405180910390fd5b8181036000808573ffffffffffffffffffffffffffffffffffffffff1673ffffffffffffffffffffffffffffffffffffffff1681526020019081526020016000208190555081600260008282540392505081905550600073ffffffffffffffffffffffffffffffffffffffff168373ffffffffffffffffffffffffffffffffffffffff167fddf252ad1be2c89b69c2b068fc378daa952ba7f163c4a11628f55a4df523b3ef84604051610f249190611117565b60405180910390a3610f3883600084610f42565b505050565b505050565b505050565b600081519050919050565b600082825260208201905092915050565b60005b83811015610f81578082015181840152602081019050610f66565b60008484015250505050565b6000601f19601f8301169050919050565b6000610fa982610f47565b610fb38185610f52565b9350610fc3818560208601610f63565b610fcc81610f8d565b840191505092915050565b60006020820190508181036000830152610ff18184610f9e565b905092915050565b600080fd5b600073ffffffffffffffffffffffffffffffffffffffff82169050919050565b600061102982610ffe565b9050919050565b6110398161101e565b811461104457600080fd5b50565b60008135905061105681611030565b92915050565b6000819050919050565b61106f8161105c565b811461107a57600080fd5b50565b60008135905061108c81611066565b92915050565b600080604083850312156110a9576110a8610ff9565b5b60006110b785828601611047565b92505060206110c88582860161107d565b9150509250929050565b60008115159050919050565b6110e7816110d2565b82525050565b600060208201905061110260008301846110de565b92915050565b6111118161105c565b82525050565b600060208201905061112c6000830184611108565b92915050565b60008060006060848603121561114b5761114a610ff9565b5b600061115986828701611047565b935050602061116a86828701611047565b925050604061117b8682870161107d565b9150509250925092565b600060ff82169050919050565b61119b81611185565b82525050565b60006020820190506111b66000830184611192565b92915050565b6000602082840312156111d2576111d1610ff9565b5b60006111e084828501611047565b91505092915050565b60008060408385031215611200576111ff610ff9565b5b600061120e85828601611047565b925050602061121f85828601611047565b9150509250929050565b7f4e487b7100000000000000000000000000000000000000000000000000000000600052602260045260246000fd5b6000600282049050600182168061127057607f821691505b60208210810361128357611282611229565b5b50919050565b7f4e487b7100000000000000000000000000000000000000000000000000000000600052601160045260246000fd5b60006112c38261105c565b91506112ce8361105c565b92508282019050808211156112e6576112e5611289565b5b92915050565b7f4f6e6c7920666f7265737420636f6e747261637420697320616c6c6f7765642060008201527f746f206d696e74206275636b6574730000000000000000000000000000000000602082015250565b6000611348602f83610f52565b9150611353826112ec565b604082019050919050565b600060208201905081810360008301526113778161133b565b9050919050565b7f4f6e6c7920666f7265737420636f6e747261637420697320616c6c6f7765642060008201527f746f20757365206275636b657473000000000000000000000000000000000000602082015250565b60006113da602e83610f52565b91506113e58261137e565b604082019050919050565b60006020820190508181036000830152611409816113cd565b9050919050565b7f45524332303a2064656372656173656420616c6c6f77616e63652062656c6f7760008201527f207a65726f000000000000000000000000000000000000000000000000000000602082015250565b600061146c602583610f52565b915061147782611410565b604082019050919050565b6000602082019050818103600083015261149b8161145f565b9050919050565b7f45524332303a20617070726f76652066726f6d20746865207a65726f2061646460008201527f7265737300000000000000000000000000000000000000000000000000000000602082015250565b60006114fe602483610f52565b9150611509826114a2565b604082019050919050565b6000602082019050818103600083015261152d816114f1565b9050919050565b7f45524332303a20617070726f766520746f20746865207a65726f20616464726560008201527f7373000000000000000000000000000000000000000000000000000000000000602082015250565b6000611590602283610f52565b915061159b82611534565b604082019050919050565b600060208201905081810360008301526115bf81611583565b9050919050565b7f45524332303a20696e73756666696369656e7420616c6c6f77616e6365000000600082015250565b60006115fc601d83610f52565b9150611607826115c6565b602082019050919050565b6000602082019050818103600083015261162b816115ef565b9050919050565b7f45524332303a207472616e736665722066726f6d20746865207a65726f20616460008201527f6472657373000000000000000000000000000000000000000000000000000000602082015250565b600061168e602583610f52565b915061169982611632565b604082019050919050565b600060208201905081810360008301526116bd81611681565b9050919050565b7f45524332303a207472616e7366657220746f20746865207a65726f206164647260008201527f6573730000000000000000000000000000000000000000000000000000000000602082015250565b6000611720602383610f52565b915061172b826116c4565b604082019050919050565b6000602082019050818103600083015261174f81611713565b9050919050565b7f45524332303a207472616e7366657220616d6f756e742065786365656473206260008201527f616c616e63650000000000000000000000000000000000000000000000000000602082015250565b60006117b2602683610f52565b91506117bd82611756565b604082019050919050565b600060208201905081810360008301526117e1816117a5565b9050919050565b7f45524332303a206d696e7420746f20746865207a65726f206164647265737300600082015250565b600061181e601f83610f52565b9150611829826117e8565b602082019050919050565b6000602082019050818103600083015261184d81611811565b9050919050565b7f45524332303a206275726e2066726f6d20746865207a65726f2061646472657360008201527f7300000000000000000000000000000000000000000000000000000000000000602082015250565b60006118b0602183610f52565b91506118bb82611854565b604082019050919050565b600060208201905081810360008301526118df816118a3565b9050919050565b7f45524332303a206275726e20616d6f756e7420657863656564732062616c616e60008201527f6365000000000000000000000000000000000000000000000000000000000000602082015250565b6000611942602283610f52565b915061194d826118e6565b604082019050919050565b6000602082019050818103600083015261197181611935565b905091905056fea2646970667358221220cc2084320adeb8b1c9e68c378468ad38f36e84f369a2a68d2b6e2b8565d29fc664736f6c63430008110033",
  "immutableReferences": {},
  "source": "pragma solidity ^0.8.0;\n\nimport \"@openzeppelin/contracts/token/ERC20/ERC20.sol\";\n\ncontract WaterBucket is ERC20{\n    address _forest;\n\n    constructor(string memory name, string memory symbol) ERC20(name, symbol) {\n        _forest = address(0);\n    }\n\n    function mint(address to, uint256 amount) public{\n        require(_msgSender() == _forest, \"Only forest contract is allowed to mint buckets\");\n        _mint(to, amount);\n    }\n\n    function use(address to, uint256 amount) public {\n        require(_msgSender() == _forest, \"Only forest contract is allowed to use buckets\");\n        _burn(to, amount);\n    }\n}",
  "sourcePath": "/home/prawin/Documents/EthPrague/contracts/WaterBucket.sol",
  "compiler": {
    "name": "solc",
    "version": "0.8.17+commit.8df45f5f.Emscripten.clang"
  },
  "schemaVersion": "3.4.11",
  "updatedAt": "2023-06-10T10:37:55.559Z",
  "devdoc": {
    "kind": "dev",
    "methods": {
      "allowance(address,address)": {
        "details": "See {IERC20-allowance}."
      },
      "approve(address,uint256)": {
        "details": "See {IERC20-approve}. NOTE: If `amount` is the maximum `uint256`, the allowance is not updated on `transferFrom`. This is semantically equivalent to an infinite approval. Requirements: - `spender` cannot be the zero address."
      },
      "balanceOf(address)": {
        "details": "See {IERC20-balanceOf}."
      },
      "decimals()": {
        "details": "Returns the number of decimals used to get its user representation. For example, if `decimals` equals `2`, a balance of `505` tokens should be displayed to a user as `5.05` (`505 / 10 ** 2`). Tokens usually opt for a value of 18, imitating the relationship between Ether and Wei. This is the default value returned by this function, unless it's overridden. NOTE: This information is only used for _display_ purposes: it in no way affects any of the arithmetic of the contract, including {IERC20-balanceOf} and {IERC20-transfer}."
      },
      "decreaseAllowance(address,uint256)": {
        "details": "Atomically decreases the allowance granted to `spender` by the caller. This is an alternative to {approve} that can be used as a mitigation for problems described in {IERC20-approve}. Emits an {Approval} event indicating the updated allowance. Requirements: - `spender` cannot be the zero address. - `spender` must have allowance for the caller of at least `subtractedValue`."
      },
      "increaseAllowance(address,uint256)": {
        "details": "Atomically increases the allowance granted to `spender` by the caller. This is an alternative to {approve} that can be used as a mitigation for problems described in {IERC20-approve}. Emits an {Approval} event indicating the updated allowance. Requirements: - `spender` cannot be the zero address."
      },
      "name()": {
        "details": "Returns the name of the token."
      },
      "symbol()": {
        "details": "Returns the symbol of the token, usually a shorter version of the name."
      },
      "totalSupply()": {
        "details": "See {IERC20-totalSupply}."
      },
      "transfer(address,uint256)": {
        "details": "See {IERC20-transfer}. Requirements: - `to` cannot be the zero address. - the caller must have a balance of at least `amount`."
      },
      "transferFrom(address,address,uint256)": {
        "details": "See {IERC20-transferFrom}. Emits an {Approval} event indicating the updated allowance. This is not required by the EIP. See the note at the beginning of {ERC20}. NOTE: Does not update the allowance if the current allowance is the maximum `uint256`. Requirements: - `from` and `to` cannot be the zero address. - `from` must have a balance of at least `amount`. - the caller must have allowance for ``from``'s tokens of at least `amount`."
      }
    },
    "version": 1
  },
  "userdoc": {
    "kind": "user",
    "methods": {},
    "version": 1
  }
}